{
  "contractName": "EglGenesis",
  "abi": [
    {
      "anonymous": false,
      "inputs": [
        {
          "indexed": false,
          "internalType": "address",
          "name": "contributor",
          "type": "address"
        },
        {
          "indexed": false,
          "internalType": "uint256",
          "name": "amount",
          "type": "uint256"
        },
        {
          "indexed": false,
          "internalType": "uint256",
          "name": "cumulativeBalance",
          "type": "uint256"
        },
        {
          "indexed": false,
          "internalType": "uint256",
          "name": "idx",
          "type": "uint256"
        },
        {
          "indexed": false,
          "internalType": "uint256",
          "name": "date",
          "type": "uint256"
        }
      ],
      "name": "ContributionReceived",
      "type": "event"
    },
    {
      "anonymous": false,
      "inputs": [
        {
          "indexed": false,
          "internalType": "address",
          "name": "contributor",
          "type": "address"
        },
        {
          "indexed": false,
          "internalType": "uint256",
          "name": "amount",
          "type": "uint256"
        },
        {
          "indexed": false,
          "internalType": "uint256",
          "name": "date",
          "type": "uint256"
        }
      ],
      "name": "ContributionWithdrawn",
      "type": "event"
    },
    {
      "anonymous": false,
      "inputs": [
        {
          "indexed": false,
          "internalType": "address",
          "name": "owner",
          "type": "address"
        },
        {
          "indexed": false,
          "internalType": "uint256",
          "name": "cumulativeBalance",
          "type": "uint256"
        },
        {
          "indexed": false,
          "internalType": "uint256",
          "name": "contractBalance",
          "type": "uint256"
        },
        {
          "indexed": false,
          "internalType": "uint256",
          "name": "date",
          "type": "uint256"
        }
      ],
      "name": "GenesisEnded",
      "type": "event"
    },
    {
      "anonymous": false,
      "inputs": [
        {
          "indexed": false,
          "internalType": "address",
          "name": "owner",
          "type": "address"
        },
        {
          "indexed": false,
          "internalType": "bool",
          "name": "canContribute",
          "type": "bool"
        },
        {
          "indexed": false,
          "internalType": "uint256",
          "name": "maxThreshold",
          "type": "uint256"
        }
      ],
      "name": "Initialized",
      "type": "event"
    },
    {
      "anonymous": false,
      "inputs": [
        {
          "indexed": true,
          "internalType": "address",
          "name": "previousOwner",
          "type": "address"
        },
        {
          "indexed": true,
          "internalType": "address",
          "name": "newOwner",
          "type": "address"
        }
      ],
      "name": "OwnershipTransferred",
      "type": "event"
    },
    {
      "anonymous": false,
      "inputs": [
        {
          "indexed": false,
          "internalType": "address",
          "name": "account",
          "type": "address"
        }
      ],
      "name": "Paused",
      "type": "event"
    },
    {
      "anonymous": false,
      "inputs": [
        {
          "indexed": false,
          "internalType": "uint256",
          "name": "contractBalance",
          "type": "uint256"
        },
        {
          "indexed": false,
          "internalType": "uint256",
          "name": "date",
          "type": "uint256"
        }
      ],
      "name": "ThresholdMet",
      "type": "event"
    },
    {
      "anonymous": false,
      "inputs": [
        {
          "indexed": false,
          "internalType": "address",
          "name": "account",
          "type": "address"
        }
      ],
      "name": "Unpaused",
      "type": "event"
    },
    {
      "anonymous": false,
      "inputs": [
        {
          "indexed": false,
          "internalType": "address",
          "name": "owner",
          "type": "address"
        },
        {
          "indexed": false,
          "internalType": "uint256",
          "name": "date",
          "type": "uint256"
        }
      ],
      "name": "WithdAllowed",
      "type": "event"
    },
    {
      "inputs": [],
      "name": "absoluteMaxContributorsCount",
      "outputs": [
        {
          "internalType": "uint256",
          "name": "",
          "type": "uint256"
        }
      ],
      "stateMutability": "view",
      "type": "function"
    },
    {
      "inputs": [],
      "name": "canContribute",
      "outputs": [
        {
          "internalType": "bool",
          "name": "",
          "type": "bool"
        }
      ],
      "stateMutability": "view",
      "type": "function"
    },
    {
      "inputs": [],
      "name": "canWithdraw",
      "outputs": [
        {
          "internalType": "bool",
          "name": "",
          "type": "bool"
        }
      ],
      "stateMutability": "view",
      "type": "function"
    },
    {
      "inputs": [
        {
          "internalType": "address",
          "name": "",
          "type": "address"
        }
      ],
      "name": "contributors",
      "outputs": [
        {
          "internalType": "uint256",
          "name": "amount",
          "type": "uint256"
        },
        {
          "internalType": "uint256",
          "name": "cumulativeBalance",
          "type": "uint256"
        },
        {
          "internalType": "uint256",
          "name": "idx",
          "type": "uint256"
        },
        {
          "internalType": "uint256",
          "name": "date",
          "type": "uint256"
        }
      ],
      "stateMutability": "view",
      "type": "function"
    },
    {
      "inputs": [
        {
          "internalType": "uint256",
          "name": "",
          "type": "uint256"
        }
      ],
      "name": "contributorsList",
      "outputs": [
        {
          "internalType": "address",
          "name": "",
          "type": "address"
        }
      ],
      "stateMutability": "view",
      "type": "function"
    },
    {
      "inputs": [],
      "name": "cumulativeBalance",
      "outputs": [
        {
          "internalType": "uint256",
          "name": "",
          "type": "uint256"
        }
      ],
      "stateMutability": "view",
      "type": "function"
    },
    {
      "inputs": [],
      "name": "owner",
      "outputs": [
        {
          "internalType": "address",
          "name": "",
          "type": "address"
        }
      ],
      "stateMutability": "view",
      "type": "function"
    },
    {
      "inputs": [],
      "name": "paused",
      "outputs": [
        {
          "internalType": "bool",
          "name": "",
          "type": "bool"
        }
      ],
      "stateMutability": "view",
      "type": "function"
    },
    {
      "inputs": [
        {
          "internalType": "address",
          "name": "newOwner",
          "type": "address"
        }
      ],
      "name": "transferOwnership",
      "outputs": [],
      "stateMutability": "nonpayable",
      "type": "function"
    },
    {
      "stateMutability": "payable",
      "type": "receive"
    },
    {
      "inputs": [
        {
          "internalType": "address",
          "name": "_owner",
          "type": "address"
        },
        {
          "internalType": "uint256",
          "name": "_threshold",
          "type": "uint256"
        }
      ],
      "name": "initialize",
      "outputs": [],
      "stateMutability": "nonpayable",
      "type": "function"
    },
    {
      "inputs": [],
      "name": "withdraw",
      "outputs": [],
      "stateMutability": "nonpayable",
      "type": "function"
    },
    {
      "inputs": [],
      "name": "allowWithdraw",
      "outputs": [],
      "stateMutability": "nonpayable",
      "type": "function"
    },
    {
      "inputs": [],
      "name": "endGenesis",
      "outputs": [],
      "stateMutability": "nonpayable",
      "type": "function"
    },
    {
      "inputs": [],
      "name": "pauseGenesis",
      "outputs": [],
      "stateMutability": "nonpayable",
      "type": "function"
    },
    {
      "inputs": [],
      "name": "unpauseGenesis",
      "outputs": [],
      "stateMutability": "nonpayable",
      "type": "function"
    },
    {
      "inputs": [],
      "name": "renounceOwnership",
      "outputs": [],
      "stateMutability": "nonpayable",
      "type": "function"
    }
  ],
  "bytecode": "0x608060405234801561001057600080fd5b506116f7806100206000396000f3fe6080604052600436106100f75760003560e01c80638242dd001161008a578063cd6dc68711610059578063cd6dc68714610557578063d7dc18ee14610590578063f1ead252146105a5578063f2fde38b146105ba576103b9565b80638242dd00146105035780638da5cb5b14610518578063a2e684b21461052d578063b51459fe14610542576103b9565b806340b98253116100c657806340b982531461049b5780634b472d45146104c45780635c975abb146104d9578063715018a6146104ee576103b9565b80630b9f2c4a146103be5780631f6d49421461040457806326ff07351461045d5780633ccfd60b14610484576103b9565b366103b9576101046105ed565b15610149576040805162461bcd60e51b815260206004820152601060248201526f14185d5cd8589b194e881c185d5cd95960821b604482015290519081900360640190fd5b60995460ff166101a0576040805162461bcd60e51b815260206004820152601560248201527f47454e455349533a47454e455349535f454e4445440000000000000000000000604482015290519081900360640190fd5b66038d7ea4c680003410156101fc576040805162461bcd60e51b815260206004820152601660248201527f47454e455349533a494e56414c49445f414d4f554e5400000000000000000000604482015290519081900360640190fd5b336000908152609b60205260409020541561025e576040805162461bcd60e51b815260206004820152601b60248201527f47454e455349533a414c52454144595f434f4e54524942555445440000000000604482015290519081900360640190fd5b609a80546001810182556000919091527f44da158ba27f9252712a74ff6a55c5d531f69609f1f6e7f17c4443a8e2089be401805473ffffffffffffffffffffffffffffffffffffffff1916331790556097546102c0903463ffffffff6105f616565b6097556098546102d790600163ffffffff6105f616565b6098908155336000908152609b6020526040902034815560978054600183015591546002820155426003820155609c549154909111610357576099805460ff191690556097546040805191825242602083015280517f7ce15c40debca4890ad237e24f8fa75fb3ec8b914a4bb14902f24f4aea14f5069281900390910190a15b80546001820154600283015460038401546040805133815260208101959095528481019390935260608401919091526080830152517f04ef43f1bc6002874f43fc6578258454300f85327600229e298c99497fa757169181900360a00190a150005b600080fd5b3480156103ca57600080fd5b506103e8600480360360208110156103e157600080fd5b5035610657565b604080516001600160a01b039092168252519081900360200190f35b34801561041057600080fd5b506104376004803603602081101561042757600080fd5b50356001600160a01b031661067e565b604080519485526020850193909352838301919091526060830152519081900360800190f35b34801561046957600080fd5b506104726106a5565b60408051918252519081900360200190f35b34801561049057600080fd5b506104996106ab565b005b3480156104a757600080fd5b506104b0610912565b604080519115158252519081900360200190f35b3480156104d057600080fd5b5061047261091b565b3480156104e557600080fd5b506104b06105ed565b3480156104fa57600080fd5b50610499610921565b34801561050f57600080fd5b506104996109e2565b34801561052457600080fd5b506103e8610b96565b34801561053957600080fd5b50610499610ba5565b34801561054e57600080fd5b506104b0610c70565b34801561056357600080fd5b506104996004803603604081101561057a57600080fd5b506001600160a01b038135169060200135610c7e565b34801561059c57600080fd5b50610499610e67565b3480156105b157600080fd5b50610499610f3c565b3480156105c657600080fd5b50610499600480360360208110156105dd57600080fd5b50356001600160a01b0316611154565b60655460ff1690565b600082820183811015610650576040805162461bcd60e51b815260206004820152601b60248201527f536166654d6174683a206164646974696f6e206f766572666c6f770000000000604482015290519081900360640190fd5b9392505050565b609a818154811061066457fe5b6000918252602090912001546001600160a01b0316905081565b609b6020526000908152604090208054600182015460028301546003909301549192909184565b60985481565b6106b36105ed565b156106f8576040805162461bcd60e51b815260206004820152601060248201526f14185d5cd8589b194e881c185d5cd95960821b604482015290519081900360640190fd5b609954610100900460ff16610754576040805162461bcd60e51b815260206004820152601c60248201527f47454e455349533a57495448445241575f4e4f545f414c4c4f57454400000000604482015290519081900360640190fd5b336000908152609b60205260409020546107b5576040805162461bcd60e51b815260206004820152601760248201527f47454e455349533a4e4f545f434f4e5452494255544544000000000000000000604482015290519081900360640190fd5b336000908152609b6020526040812080546002820180548484556001840185905590849055600390920192909255609a805460001983019081106107f557fe5b6000918252602090912001805473ffffffffffffffffffffffffffffffffffffffff1916905560975461082e908363ffffffff61127616565b609755604051600090339084908381818185875af1925050503d8060008114610873576040519150601f19603f3d011682016040523d82523d6000602084013e610878565b606091505b50509050806108ce576040805162461bcd60e51b815260206004820152601760248201527f47454e455349533a57495448445241575f4641494c4544000000000000000000604482015290519081900360640190fd5b6040805133815260208101859052428183015290517f59a711b6608d234f8bbce6257dd2dd12154b00cc23503149fd99ddf0d6980ffe9181900360600190a1505050565b60995460ff1681565b60975481565b6109296112d3565b6001600160a01b031661093a610b96565b6001600160a01b031614610995576040805162461bcd60e51b815260206004820181905260248201527f4f776e61626c653a2063616c6c6572206973206e6f7420746865206f776e6572604482015290519081900360640190fd5b6040805162461bcd60e51b815260206004820152601d60248201527f47454e455349533a4e4f5f52454e4f554e43455f4f574e455253484950000000604482015290519081900360640190fd5b6109ea6112d3565b6001600160a01b03166109fb610b96565b6001600160a01b031614610a56576040805162461bcd60e51b815260206004820181905260248201527f4f776e61626c653a2063616c6c6572206973206e6f7420746865206f776e6572604482015290519081900360640190fd5b610a5e6105ed565b15610aa3576040805162461bcd60e51b815260206004820152601060248201526f14185d5cd8589b194e881c185d5cd95960821b604482015290519081900360640190fd5b6099805460ff1916905560975460405160009133918381818185875af1925050503d8060008114610af0576040519150601f19603f3d011682016040523d82523d6000602084013e610af5565b606091505b5050905080610b4b576040805162461bcd60e51b815260206004820152601560248201527f47454e455349533a20434c4f53455f4641494c45440000000000000000000000604482015290519081900360640190fd5b6097546040805133815260208101929092524782820152426060830152517f0eee13caf4fa9e8d4b62491e9e253a147338d68c76abc22825cbf471878d32ec9181900360800190a150565b6033546001600160a01b031690565b610bad6112d3565b6001600160a01b0316610bbe610b96565b6001600160a01b031614610c19576040805162461bcd60e51b815260206004820181905260248201527f4f776e61626c653a2063616c6c6572206973206e6f7420746865206f776e6572604482015290519081900360640190fd5b610c216105ed565b15610c66576040805162461bcd60e51b815260206004820152601060248201526f14185d5cd8589b194e881c185d5cd95960821b604482015290519081900360640190fd5b610c6e6112d7565b565b609954610100900460ff1681565b600054610100900460ff1680610c975750610c97611377565b80610ca5575060005460ff16155b610ce05760405162461bcd60e51b815260040180806020018281038252602e815260200180611694602e913960400191505060405180910390fd5b600054610100900460ff16158015610d0b576000805460ff1961ff0019909116610100171660011790555b6001600160a01b038316610d66576040805162461bcd60e51b815260206004820152601560248201527f47454e455349533a494e56414c49445f4f574e45520000000000000000000000604482015290519081900360640190fd5b6001600160a01b038316301415610dc4576040805162461bcd60e51b815260206004820152601b60248201527f47454e455349533a414444524553535f49535f434f4e54524143540000000000604482015290519081900360640190fd5b610dcc611388565b610dd461142a565b610ddc611530565b610de583611154565b6099805460ff19166001179055609c8290557fa44f0bac4c215986c877e2cee6adb07fce444f809d4ad025cc89cf9dab130840610e20610b96565b609954604080516001600160a01b03909316835260ff90911615156020830152818101859052519081900360600190a18015610e62576000805461ff00191690555b505050565b610e6f6112d3565b6001600160a01b0316610e80610b96565b6001600160a01b031614610edb576040805162461bcd60e51b815260206004820181905260248201527f4f776e61626c653a2063616c6c6572206973206e6f7420746865206f776e6572604482015290519081900360640190fd5b610ee36105ed565b610f34576040805162461bcd60e51b815260206004820152601460248201527f5061757361626c653a206e6f7420706175736564000000000000000000000000604482015290519081900360640190fd5b610c6e6115db565b610f446112d3565b6001600160a01b0316610f55610b96565b6001600160a01b031614610fb0576040805162461bcd60e51b815260206004820181905260248201527f4f776e61626c653a2063616c6c6572206973206e6f7420746865206f776e6572604482015290519081900360640190fd5b610fb86105ed565b15610ffd576040805162461bcd60e51b815260206004820152601060248201526f14185d5cd8589b194e881c185d5cd95960821b604482015290519081900360640190fd5b600060975411611054576040805162461bcd60e51b815260206004820152601260248201527f47454e455349533a4e4f5f42414c414e43450000000000000000000000000000604482015290519081900360640190fd5b609c54609754106110ac576040805162461bcd60e51b815260206004820152601d60248201527f47454e455349533a4d41585f5448524553484f4c445f52454143484544000000604482015290519081900360640190fd5b60995460ff16611103576040805162461bcd60e51b815260206004820152601560248201527f47454e455349533a47454e455349535f454e4445440000000000000000000000604482015290519081900360640190fd5b6099805460ff1961ff0019909116610100171690556040805133815242602082015281517f10c32b660b802a4ebfdab4812976ab7968f0264d1653113bced5f3f21366c327929181900390910190a1565b61115c6112d3565b6001600160a01b031661116d610b96565b6001600160a01b0316146111c8576040805162461bcd60e51b815260206004820181905260248201527f4f776e61626c653a2063616c6c6572206973206e6f7420746865206f776e6572604482015290519081900360640190fd5b6001600160a01b03811661120d5760405162461bcd60e51b815260040180806020018281038252602681526020018061166e6026913960400191505060405180910390fd5b6033546040516001600160a01b038084169216907f8be0079c531659141344cd1fd0a4f28419497f9722a3daafe3b4186f6b6457e090600090a36033805473ffffffffffffffffffffffffffffffffffffffff19166001600160a01b0392909216919091179055565b6000828211156112cd576040805162461bcd60e51b815260206004820152601e60248201527f536166654d6174683a207375627472616374696f6e206f766572666c6f770000604482015290519081900360640190fd5b50900390565b3390565b6112df6105ed565b15611324576040805162461bcd60e51b815260206004820152601060248201526f14185d5cd8589b194e881c185d5cd95960821b604482015290519081900360640190fd5b6065805460ff191660011790557f62e78cea01bee320cd4e420270b5ea74000d11b0c9f74754ebdbfc544b05a25861135a6112d3565b604080516001600160a01b039092168252519081900360200190a1565b600061138230611667565b15905090565b600054610100900460ff16806113a157506113a1611377565b806113af575060005460ff16155b6113ea5760405162461bcd60e51b815260040180806020018281038252602e815260200180611694602e913960400191505060405180910390fd5b600054610100900460ff16158015611415576000805460ff1961ff0019909116610100171660011790555b8015611427576000805461ff00191690555b50565b600054610100900460ff16806114435750611443611377565b80611451575060005460ff16155b61148c5760405162461bcd60e51b815260040180806020018281038252602e815260200180611694602e913960400191505060405180910390fd5b600054610100900460ff161580156114b7576000805460ff1961ff0019909116610100171660011790555b60006114c16112d3565b6033805473ffffffffffffffffffffffffffffffffffffffff19166001600160a01b038316908117909155604051919250906000907f8be0079c531659141344cd1fd0a4f28419497f9722a3daafe3b4186f6b6457e0908290a3508015611427576000805461ff001916905550565b600054610100900460ff16806115495750611549611377565b80611557575060005460ff16155b6115925760405162461bcd60e51b815260040180806020018281038252602e815260200180611694602e913960400191505060405180910390fd5b600054610100900460ff161580156115bd576000805460ff1961ff0019909116610100171660011790555b6065805460ff191690558015611427576000805461ff001916905550565b6115e36105ed565b611634576040805162461bcd60e51b815260206004820152601460248201527f5061757361626c653a206e6f7420706175736564000000000000000000000000604482015290519081900360640190fd5b6065805460ff191690557f5db9ee0a495bf2e6ff9c91a7834c1ba4fdd244a5e8aa4e537bd38aeae4b073aa61135a6112d3565b3b15159056fe4f776e61626c653a206e6577206f776e657220697320746865207a65726f2061646472657373496e697469616c697a61626c653a20636f6e747261637420697320616c726561647920696e697469616c697a6564a2646970667358221220961b20b4165738dd9973bb496fa293c73ffca23d316f745bd0d2f3a59dfbc5b864736f6c63430006060033",
  "immutableReferences": {},
  "source": "pragma solidity 0.6.6;\n\nimport \"@openzeppelin/contracts-upgradeable/access/OwnableUpgradeable.sol\";\nimport \"@openzeppelin/contracts-upgradeable/proxy/Initializable.sol\";\nimport \"@openzeppelin/contracts-upgradeable/utils/PausableUpgradeable.sol\";\nimport \"@openzeppelin/contracts-upgradeable/math/SafeMathUpgradeable.sol\";\n\ncontract EglGenesis is Initializable, OwnableUpgradeable, PausableUpgradeable {\n    using SafeMathUpgradeable for uint;\n\n    uint constant MIN_CONTRIBUTION_AMOUNT = 0.001 ether;\n\n    uint public cumulativeBalance;\n    uint public absoluteMaxContributorsCount;\n    bool public canContribute;\n    bool public canWithdraw;\n    address[] public contributorsList;    \n    mapping(address => Contributor) public contributors;\n\n    uint private maxThreshold;\n\n    struct Contributor {\n        uint amount;\n        uint cumulativeBalance;\n        uint idx;\n        uint date;\n    }\n\n    event Initialized(\n        address owner, \n        bool canContribute,\n        uint maxThreshold\n    );\n\n    event ContributionReceived(\n        address contributor, \n        uint amount,\n        uint cumulativeBalance,\n        uint idx,        \n        uint date\n    );\n\n    event ContributionWithdrawn(\n        address contributor, \n        uint amount,\n        uint date\n    );\n\n    event WithdAllowed(\n        address owner, \n        uint date\n    );\n\n    event GenesisEnded(\n        address owner,\n        uint cumulativeBalance, \n        uint contractBalance,\n        uint date\n    );\n\n    event ThresholdMet(\n        uint contractBalance,\n        uint date\n    );\n\n    /**\n     * @dev Receive eth\n     */\n    receive() external payable whenNotPaused {\n        require(canContribute, \"GENESIS:GENESIS_ENDED\");\n        require(msg.value >= MIN_CONTRIBUTION_AMOUNT, \"GENESIS:INVALID_AMOUNT\");\n        require(contributors[msg.sender].amount == 0, \"GENESIS:ALREADY_CONTRIBUTED\");\n\n        contributorsList.push(msg.sender);\n        cumulativeBalance = cumulativeBalance.add(msg.value);\n        absoluteMaxContributorsCount = absoluteMaxContributorsCount.add(1);\n\n        Contributor storage contributor = contributors[msg.sender];\n        contributor.amount = msg.value;\n        contributor.cumulativeBalance = cumulativeBalance;\n        contributor.idx = absoluteMaxContributorsCount;\n        contributor.date = now;        \n\n        if (cumulativeBalance >= maxThreshold) {\n            canContribute = false;\n            emit ThresholdMet(cumulativeBalance, now);\n        }            \n        emit ContributionReceived(\n            msg.sender, \n            contributor.amount, \n            contributor.cumulativeBalance, \n            contributor.idx, \n            contributor.date\n        );\n    }\n\n    /**\n     * @dev Initialize contract variables\n     * \n     * @param _owner Address of wallet that will have administrative priviledges over the contract\n     * @param _threshold Max amount of ETH to collect before automatically stopping collection\n     */\n    function initialize(address _owner, uint _threshold) external initializer {\n        require(_owner != address(0), \"GENESIS:INVALID_OWNER\");\n        require(_owner != address(this), \"GENESIS:ADDRESS_IS_CONTRACT\");\n\n        __Context_init_unchained();\n        __Ownable_init_unchained();\n        __Pausable_init_unchained();\n\n        transferOwnership(_owner);\n        canContribute = true;\n        maxThreshold = _threshold;\n        emit Initialized(owner(), canContribute, _threshold);\n    }\n\n    /**\n     * @dev Withdraw ETH contributed only if contributed and withdraw flag is set to 'true'\n     */\n    function withdraw() external whenNotPaused {\n        require(canWithdraw, \"GENESIS:WITHDRAW_NOT_ALLOWED\");\n        require(contributors[msg.sender].amount > 0, \"GENESIS:NOT_CONTRIBUTED\");\n\n        uint amountToWithdraw = contributors[msg.sender].amount;\n        uint contributorIdx = contributors[msg.sender].idx;\n        delete contributors[msg.sender];\n        delete contributorsList[contributorIdx - 1];\n        \n        cumulativeBalance = cumulativeBalance.sub(amountToWithdraw);\n\n        (bool success, ) = msg.sender.call{ value: amountToWithdraw}(\"\");\n        require(success, \"GENESIS:WITHDRAW_FAILED\");        \n        emit ContributionWithdrawn(msg.sender, amountToWithdraw, now);\n    }\n\n    /**\n     * @dev Owner only function to set the withdraw flag to 'true'\n     */\n    function allowWithdraw() external onlyOwner whenNotPaused {\n        require(cumulativeBalance > 0, \"GENESIS:NO_BALANCE\");\n        require(cumulativeBalance < maxThreshold, \"GENESIS:MAX_THRESHOLD_REACHED\");\n        require(canContribute, \"GENESIS:GENESIS_ENDED\");\n        canWithdraw = true;\n        canContribute = false;\n        emit WithdAllowed(msg.sender, now);\n    }\n\n    /** \n     * @dev End genesis period and transfer contract balance to owner wallet\n     */\n    function endGenesis() external onlyOwner whenNotPaused {\n        canContribute = false;\n        (bool success, ) = msg.sender.call{ value: cumulativeBalance}(\"\");\n        require(success, \"GENESIS: CLOSE_FAILED\");\n        emit GenesisEnded(msg.sender, cumulativeBalance, address(this).balance, now);\n    }\n\n    /**\n     * @dev Ower only funciton to pause contract\n     */\n    function pauseGenesis() external onlyOwner whenNotPaused {\n        _pause();\n    }\n\n    /** \n     * @dev Owner only function to unpause contract\n     */\n    function unpauseGenesis() external onlyOwner whenPaused {\n        _unpause();\n    }\n\n    /**\n     * @dev Do not allow owner to renounce ownership, only transferOwnership\n     */\n    function renounceOwnership() public override onlyOwner {\n        revert(\"GENESIS:NO_RENOUNCE_OWNERSHIP\");\n    }\n}",
  "sourcePath": "/Users/svancoller/Development/bloXroute/egl_genesis/contracts/EglGenesis.sol",
  "compiler": {
    "name": "solc",
    "version": "0.6.6+commit.6c089d02.Emscripten.clang"
  },
  "schemaVersion": "3.2.5",
  "updatedAt": "2021-06-07T18:35:09.575Z",
  "devdoc": {
    "methods": {
      "allowWithdraw()": {
        "details": "Owner only function to set the withdraw flag to 'true'"
      },
      "endGenesis()": {
        "details": "End genesis period and transfer contract balance to owner wallet"
      },
      "initialize(address,uint256)": {
        "details": "Initialize contract variables ",
        "params": {
          "_owner": "Address of wallet that will have administrative priviledges over the contract",
          "_threshold": "Max amount of ETH to collect before automatically stopping collection"
        }
      },
      "owner()": {
        "details": "Returns the address of the current owner."
      },
      "pauseGenesis()": {
        "details": "Ower only funciton to pause contract"
      },
      "paused()": {
        "details": "Returns true if the contract is paused, and false otherwise."
      },
      "renounceOwnership()": {
        "details": "Do not allow owner to renounce ownership, only transferOwnership"
      },
      "transferOwnership(address)": {
        "details": "Transfers ownership of the contract to a new account (`newOwner`). Can only be called by the current owner."
      },
      "unpauseGenesis()": {
        "details": "Owner only function to unpause contract"
      },
      "withdraw()": {
        "details": "Withdraw ETH contributed only if contributed and withdraw flag is set to 'true'"
      }
    }
  },
  "userdoc": {
    "methods": {}
  }
}